:1000000012C02CC02BC02AC029C028C027C026C0BF
:10001000BFC024C023C095C021C020C01FC01EC0C7
:100020001DC01CC01BC011241FBECFE5D4E0DEBF25
:10003000CDBF10E0A0E6B0E0E6E9F9E002C005902F
:100040000D92AC37B107D9F720E0ACE7B0E001C0C2
:100050001D92AA3AB207E1F752D29BC4D1CF8B9A34
:1000600093988B9834E080E020B3869523FB992702
:1000700090F9979599279795892B929A00C0929815
:1000800000C0315089F744E020B3369523FB99270F
:1000900090F9979599279795392B929A00C0929845
:1000A00000C0415089F7982F92959F7032953F700C
:1000B000330F832F880F880F830F890F08958C9A31
:1000C000939A92989498949A08958B9898E093981C
:1000D00080FD939A929A00C0929800C086959150A4
:1000E000B1F70895CF93C82FEADF8C2FEEDFB7DF8B
:1000F00094989298CF910895CF93DF93D82FC62FDD
:10010000DEDF8D2FE2DF8C2FE0DF94989298DF9175
:10011000CF910895E199FECF90E09FBB8EBBE09A0E
:100120008FEF9FEF9FBB8EBB8DB3089583E389B99B
:1001300010BC80E98AB986E880BD80B5877F80BD24
:1001400008951F920F920FB60F9211248F939F93D1
:10015000EF93FF939CB180917F00E82FF0E0EF5682
:10016000FF4F90839E3231F08F5F803118F480937F
:100170007F0005C010927F0081E080937E00FF9198
:10018000EF919F918F910F900FBE0F901F90189538
:100190001F920F920FB60F9211242F933F934F93FC
:1001A0005F936F937F938F939F93AF93BF93CF93FF
:1001B000DF93EF93FF9387E19CEF9DBD8CBD809112
:1001C00063008C3061F5809160009091610001972F
:1001D0009093610080936000892B09F585E882DFA8
:1001E0008F738093810083E87DDF809380009091FE
:1001F0008100C82FD0E084E6989FC00DD11D112446
:10020000809166008F5F80936600817098D3CE01E5
:1002100010D388EE93E09093610080936000FF918B
:10022000EF91DF91CF91BF91AF919F918F917F918E
:100230006F915F914F913F912F910F900FBE0F9053
:100240001F90189586B38C708695869590917D0049
:10025000913031F1A8F0923019F0933089F13FC01C
:10026000833031F4909162009F5F9093620037C0B9
:10027000811135C0909162009150909362002FC01F
:10028000823031F4909162009F5F9093620027C0AA
:10029000813029F5909162009150909362001FC0C7
:1002A000811106C0909162009F5F9093620017C019
:1002B0008330A9F4909162009150909362000FC036
:1002C000813031F4909162009F5F9093620007C08B
:1002D000823029F490916200915090936200809353
:1002E0007D000895B1990EC02FE788E391E0215079
:1002F00080409040E1F700C00000B19903C081E068
:1003000080937C000895EF92FF92CF93DF93979AAA
:1003100080916400813019F409DFA49AAC9880912F
:100320006400823031F4B998BA98BB9888B38E6073
:1003300088BBF89484B3806384BB44E065E080E0CC
:10034000D6D240EC60E082E0F2D280E0E3DEC2E8A8
:10035000D0E0888381E0DEDE898382E0DBDE8A8391
:1003600083E0D8DE8B837E01C0E0F70181917F01BD
:1003700090E05FD26C2F80E03DD2FFEF29E688E16C
:10038000F15020408040E1F700C00000CF5FC43052
:1003900061F795DE81E08EBD89B7846089BF78946E
:1003A0008FE181BD8FE081BDDF91CF91FF90EF9014
:1003B00008959DEC899F912D11249695969596957B
:1003C00020E1929FA0011124990F292F220F220FC3
:1003D000920F891B842B0895CF92DF92EF92FF92A8
:1003E0001F93CF93DF9376D28BE080936300D091FD
:1003F0008100109180008D2F90E01BD22FEF84E3BD
:100400009CE0215080409040E1F700C00000C12EE8
:10041000DD2EF12CC1E0EE24E39464DF8FEC97E055
:100420000197F1F700C0000080917C008823E1F083
:100430009FEF21EE84E0915020408040E1F700C022
:100440000000CF5FC73068F4C13019F0C23029F026
:1004500009C08D2F90E0EDD105C0812F90E0E9D14A
:1004600001C0C0E010927C00EDDE80916200882324
:10047000F9F0C13019F0C23069F017C0D80FD83187
:1004800020F0DD1668F129C0D7E18D2F90E0D1D1A1
:10049000DD2E0BC0180F1C3320F0C11630F122C026
:1004A0001BE3812F90E0C5D1C12E10926200FE2C7B
:1004B000C111B3CFFF2069F08D2F7BDF682F84E857
:1004C0001BDE812F76DF682F82E816DE60E080E891
:1004D00013DE8CE0809363000AC0DD15A8F2D5CF4F
:1004E000D0E0D3CF1C15E0F2DCCF10E0DACFDF9103
:1004F000CF911F91FF90EF90DF90CF90089503DF91
:10050000C2E8D0E018E0EEDE80917C008823A1F004
:1005100090E08FD12FEF84E39CE021508040904009
:10052000E1F700C0000080917C00813019F4109246
:100530007C0052DF10927C0098818091810098139A
:1005400006C080918000863010F410936500A89555
:100550002FE788E391E0215080409040E1F700C010
:100560000000D1CFE8E061E070E025B3AB0100907E
:10057000A20002C0440F551F0A94E2F7942F9095F1
:10058000922395BB80FF0CC095B39B010090A800FF
:1005900002C0220F331F0A94E2F7292B25BB0DC09E
:1005A00025B3AB010090A80002C0440F551F0A9468
:1005B000E2F7942F9095922395BB00C0000085959B
:1005C00095B39B010090A20002C0220F331F0A9432
:1005D000E2F7292B25BB00C00000E15031F695B3AE
:1005E00021E030E0A9010090A20002C0440F551F95
:1005F0000A94E2F7842F8095892385BB00C000C050
:10060000000094B3A9010090A80002C0440F551F38
:100610000A94E2F7842F8095892384BB0090A80078
:1006200002C0220F331F0A94E2F783B390E08223C3
:100630009323892BD1F784B3282B24BB45B381E0C6
:1006400090E09C010090A20002C0220F331F0A9488
:10065000E2F7242B25BB00C025B30090A20002C006
:10066000880F991F0A94E2F78095822385BB08952D
:1006700045B381E090E09C010090A20002C0220FEF
:10068000331F0A94E2F7242B25BB45B39C0100904D
:10069000A80002C0220F331F0A94E2F7242B25BBC7
:1006A00000C025B30090A80002C0880F991F0A94CB
:1006B000E2F78095822385BB089535B381E090E011
:1006C000AC010090A20002C0440F551F0A94E2F74B
:1006D000242F2095232325BB00C035B3AC01009007
:1006E000A80002C0440F551F0A94E2F7242F20955A
:1006F000232325BB00C045B39C010090A20002C08B
:10070000220F331F0A94E2F7242B25BB00C025B328
:100710000090A80002C0880F991F0A94E2F7822B6C
:1007200085BB0895AC018091A900813011F080E073
:1007300001C080E8DA019A012C5F3F4FEC91EF375E
:1007400011F41C9206C0F0E0E959FF4F9081980F18
:100750009C931196A217B30789F78091A500813069
:1007600069F48091A100833049F0FA01E80FF11D8E
:1007700080818058808383E08093A1000895EF9268
:10078000FF920F931F93CF93DF9300D000D0CDB78C
:10079000DEB7DC018E010F5F1F4F7E0185E0E80EA2
:1007A000F11CF8018D918193EE15FF05D9F7CE016B
:1007B0000196B8DF5DDF80E4D5DE7FDF59DF809111
:1007C000A300D0DEF80181918F01CCDE0E151F054C
:1007D000C9F773DF4DDF8091A700C4DE6EDF0F9095
:1007E0000F900F900F90DF91CF911F910F91FF907D
:1007F000EF900895CF93DF93C82F6F3731F0E62F36
:10080000F0E0E959FF4FD08101C0D0E031DF84E44E
:10081000A9DE53DF2DDF8C2F806CA4DE8D2FA2DEAE
:100820004CDF26DF8091A7009DDE47DFDF91CF916F
:100830000895CF93DF9300D000D0CDB7DEB79C01F1
:1008400029513C4F273F3A42F0F59923CCF420E15F
:1008500029839F7764E670E075D0262F6A836AE06B
:1008600070E070D06B838C838091A600882329F17F
:10087000211123C081E18A8361111FC08B831DC0B8
:1008800068EE73E05FD0262F698364E670E05AD08B
:10089000362F6A836AE070E055D06B838C83809139
:1008A000A600882351F0211108C081E1898331110C
:1008B00004C08A83611101C08B8381E08093A6000C
:1008C000CE0101965CDF0F900F900F900F90DF919B
:1008D000CF9108956FE780E08DDF6FE781E08ADFD9
:1008E0006FE782E087DF6FE783E084DF089560933E
:1008F000A2004093A80075B321E030E0F90102C0E6
:10090000EE0FFF1F4A95E2F7AF01472B02C0220FFF
:10091000331F6A95E2F7242B25BB8093A50081E065
:100920008093A60083E08093A100D4DF08956093B4
:10093000A4004093A30088578093A7000895809354
:10094000A900089597FB072E16F4009406D077FDB2
:1009500008D00BD007FC05D03EF4909581959F4FB1
:100960000895709561957F4F0895AA1BBB1B51E1B7
:1009700007C0AA1FBB1FA617B70710F0A61BB70B0F
:10098000881F991F5A95A9F780959095BC01CD01B4
:060990000895F894FFCF6A
:10099600F401800C020A013F065B4F666D7D077FFE
:0C09A6006F777C395E79714000231C00E3
:00000001FF
