:1000000012C02CC02BC02AC029C028C027C026C0BF
:10001000B1C024C023C087C021C020C01FC01EC0E3
:100020001DC01CC01BC011241FBECFE5D4E0DEBF25
:10003000CDBF10E0A0E6B0E0EEE4F7E002C005902E
:100040000D92AA37B107D9F720E0AAE7B0E001C0C6
:100050001D92A63AB207E1F734D177C3D1CF8B9A7C
:1000600093988B9834E080E020B3869523FB992702
:1000700090F9979599279795892B929A00C0929815
:1000800000C0315089F744E020B3369523FB99270F
:1000900090F9979599279795392B929A00C0929845
:1000A00000C0415089F7982F92959F7032953F700C
:1000B000330F832F880F880F830F890F08958C9A31
:1000C000939A92989498949A08958B9898E093981C
:1000D00080FD939A929A00C0929800C086959150A4
:1000E000B1F70895CF93C82FEADF8C2FEEDFB7DF8B
:1000F00094989298CF910895E199FECF90E09FBB9C
:100100008EBBE09A8FEF9FEF9FBB8EBB8DB30895A0
:1001100083E389B910BC80E98AB986E880BD80B5DF
:10012000877F80BD08951F920F920FB60F92112402
:100130008F939F93EF93FF939CB180917B00E82F67
:10014000F0E0E357FF4F90839E3231F08F5F8031B4
:1001500018F480937B0005C010927B0081E08093AF
:100160007A00FF91EF919F918F910F900FBE0F90AA
:100170001F9018951F920F920FB60F9211242F9374
:100180003F934F935F936F937F938F939F93AF931F
:10019000BF93CF93DF93EF93FF9387E19CEF9DBDD8
:1001A0008CBD809162008C3061F5809160009091EF
:1001B000610001979093610080936000892B09F59D
:1001C00085E890DF8F7380937D0083E88BDF8093D9
:1001D0007C0090917D00C82FD0E084E6989FC00DF0
:1001E000D11D1124809164008F5F80936400817021
:1001F00082D2CE01FAD184E690E0909361008093A0
:100200006000FF91EF91DF91CF91BF91AF919F91EE
:100210008F917F916F915F914F913F912F910F90AF
:100220000FBE0F901F901895EF92FF92CF93DF9320
:10023000979A80916300813019F46ADFA49AAC9890
:1002400080916300823031F4B998BA98BB9888B332
:100250008E6088BB84B3806384BB44E065E080E04B
:1002600022D240EC60E082E03ED280E045DFCEE783
:10027000D0E0888381E040DF898382E03DDF8A83AC
:1002800083E03ADF8B837E01C0E0F70181917F013B
:1002900090E0ABD16C2F80E089D1FFEF29E688E1B7
:1002A000F15020408040E1F700C00000CF5FC43033
:1002B00061F705DF83E08EBDDF91CF91FF90EF9076
:1002C0000895B2DF14E685E80DDF8F7380937D001B
:1002D00083E808DF80937C0090917D00C82FD0E0F8
:1002E000199FC00DD11D1124809164008F5F8093F0
:1002F0006400817000D28091640084FF02C0979AEC
:1003000001C09798CE0171D12FEF89E698E1215075
:1003100080409040E1F700C00000D5CFE8E061E008
:1003200070E025B3AB0100909E0002C0440F551F42
:100330000A94E2F7942F9095922395BB80FF0CC00E
:1003400095B39B010090A40002C0220F331F0A94B2
:10035000E2F7292B25BB0DC025B3AB010090A4000B
:1003600002C0440F551F0A94E2F7942F90959223F0
:1003700095BB00C00000859595B39B0100909E0041
:1003800002C0220F331F0A94E2F7292B25BB00C0BD
:100390000000E15031F695B321E030E0A901009072
:1003A0009E0002C0440F551F0A94E2F7842F8095E7
:1003B000892385BB00C000C0000094B3A901009050
:1003C000A40002C0440F551F0A94E2F7842F8095C1
:1003D000892384BB0090A40002C0220F331F0A941B
:1003E000E2F783B390E082239323892BD1F784B380
:1003F000282B24BB45B381E090E09C0100909E0037
:1004000002C0220F331F0A94E2F7242B25BB00C041
:1004100025B300909E0002C0880F991F0A94E2F74E
:100420008095822385BB089545B381E090E09C01CF
:1004300000909E0002C0220F331F0A94E2F7242B83
:1004400025BB45B39C010090A40002C0220F331FBE
:100450000A94E2F7242B25BB00C025B30090A4002A
:1004600002C0880F991F0A94E2F78095822385BB0A
:10047000089535B381E090E0AC0100909E0002C089
:10048000440F551F0A94E2F7242F2095232325BB00
:1004900000C035B3AC010090A40002C0440F551F4A
:1004A0000A94E2F7242F2095232325BB00C045B3EF
:1004B0009C0100909E0002C0220F331F0A94E2F7B5
:1004C000242B25BB00C025B30090A40002C0880FD8
:1004D000991F0A94E2F7822B85BB0895AC018091A5
:1004E000A500813011F080E001C080E8DA019A01B6
:1004F0002C5F3F4FEC91EF3711F41C9206C0F0E0F7
:10050000EB59FF4F9081980F9C931196A217B30758
:1005100089F78091A100813069F480919D0083303A
:1005200049F0FA01E80FF11D80818058808383E053
:1005300080939D000895EF92FF920F931F93CF93A6
:10054000DF9300D000D0CDB7DEB7DC018E010F5FA6
:100550001F4F7E0185E0E80EF11CF8018D9181931B
:10056000EE15FF05D9F7CE010196B8DF5DDF80E417
:10057000D5DE7FDF59DF80919F00D0DEF8018191C9
:100580008F01CCDE0E151F05C9F773DF4DDF80919B
:10059000A300C4DE6EDF0F900F900F900F90DF91DD
:1005A000CF911F910F91FF90EF900895CF93DF931C
:1005B000C82F6F3731F0E62FF0E0EB59FF4FD081B5
:1005C00001C0D0E031DF84E4A9DE53DF2DDF8C2FC2
:1005D000806CA4DE8D2FA2DE4CDF26DF8091A3008D
:1005E0009DDE47DFDF91CF910895CF93DF9300D059
:1005F00000D0CDB7DEB79C0129513C4F273F3A428E
:10060000F0F59923CCF420E129839F7764E670E02C
:1006100075D0262F6A836AE070E070D06B838C837C
:100620008091A200882329F1211123C081E18A83CE
:1006300061111FC08B831DC068EE73E05FD0262F51
:10064000698364E670E05AD0362F6A836AE070E00E
:1006500055D06B838C838091A200882351F02111A7
:1006600008C081E18983311104C08A83611101C00E
:100670008B8381E08093A200CE0101965CDF0F9016
:100680000F900F900F90DF91CF9108956FE780E06A
:100690008DDF6FE781E08ADF6FE782E087DF6FE75A
:1006A00083E084DF089560939E004093A40075B3B7
:1006B00021E030E0F90102C0EE0FFF1F4A95E2F79A
:1006C000AF01472B02C0220F331F6A95E2F7242B9C
:1006D00025BB8093A10081E08093A20083E08093FA
:1006E0009D00D4DF08956093A00040939F00885739
:1006F0008093A30008958093A500089597FB072E8B
:1007000016F4009406D077FD08D00BD007FC05D076
:100710003EF4909581959F4F0895709561957F4F18
:100720000895AA1BBB1B51E107C0AA1FBB1FA61738
:10073000B70710F0A61BB70B881F991F5A95A9F78A
:0E07400080959095BC01CD010895F894FFCFEF
:10074E000A000C02013F065B4F666D7D077F6F77D7
:0A075E007C395E79714000231C0015
:00000001FF
