:1000000012C02CC02BC02AC029C028C027C026C0BF
:10001000BFC024C023C095C021C020C01FC01EC0C7
:100020001DC01CC01BC011241FBECFE5D4E0DEBF25
:10003000CDBF10E0A0E6B0E0E4E2F9E002C0059038
:100040000D92AA37B107D9F720E0AAE7B0E001C0C6
:100050001D92A83AB207E1F71AD262C4D1CF8B9AA7
:1000600093988B9834E080E020B3869523FB992702
:1000700090F9979599279795892B929A00C0929815
:1000800000C0315089F744E020B3369523FB99270F
:1000900090F9979599279795392B929A00C0929845
:1000A00000C0415089F7982F92959F7032953F700C
:1000B000330F832F880F880F830F890F08958C9A31
:1000C000939A92989498949A08958B9898E093981C
:1000D00080FD939A929A00C0929800C086959150A4
:1000E000B1F70895CF93C82FEADF8C2FEEDFB7DF8B
:1000F00094989298CF910895CF93DF93D82FC62FDD
:10010000DEDF8D2FE2DF8C2FE0DF94989298DF9175
:10011000CF910895E199FECF90E09FBB8EBBE09A0E
:100120008FEF9FEF9FBB8EBB8DB3089583E389B99B
:1001300010BC80E98AB986E880BD80B5877F80BD24
:1001400008951F920F920FB60F9211248F939F93D1
:10015000EF93FF939CB180917D00E82FF0E0E15791
:10016000FF4F90839E3231F08F5F803118F480937F
:100170007D0005C010927D0081E080937C00FF919E
:10018000EF919F918F910F900FBE0F901F90189538
:100190001F920F920FB60F9211242F933F934F93FC
:1001A0005F936F937F938F939F93AF93BF93CF93FF
:1001B000DF93EF93FF938FEF97E09DBD8CBD809110
:1001C00061008C30D9F485E88DDF8F7380937F00D8
:1001D00083E888DF80937E0090917F00C82FD0E075
:1001E00084E6989FC00DD11D1124809164008F5F1B
:1001F0008093640081706AD3CE01E2D2FF91EF91C7
:10020000DF91CF91BF91AF919F918F917F916F912E
:100210005F914F913F912F910F900FBE0F901F90C4
:10022000189586B38C708695869590917B00913059
:1002300031F1A8F0923019F0933089F13FC083304A
:1002400031F4909160009F5F9093600037C08111FE
:1002500035C0909160009150909360002FC0823023
:1002600031F4909160009F5F9093600027C08130CF
:1002700029F5909160009150909360001FC081110A
:1002800006C0909160009F5F9093600017C083301C
:10029000A9F4909160009150909360000FC081305C
:1002A00031F4909160009F5F9093600007C08230AE
:1002B00029F49091600091509093600080937B00AE
:1002C0000895B1990EC02FE788E391E02150804056
:1002D0009040E1F700C00000B19903C081E0809335
:1002E0007A000895EF92FF92CF93DF938F9A8091D7
:1002F0006200813019F41ADFA49AAC9880916200F0
:10030000823031F4B998BA98BB9888B38E6088BBB4
:10031000F89484B3806384BB44E065E080E0AED2AF
:1003200040EC60E082E0CAD280E0F4DEC0E8D0E0D9
:10033000888381E0EFDE898382E0ECDE8A8383E0DC
:10034000E9DE8B837E01C0E0F70181917F0190E0BF
:1003500037D26C2F80E015D2FFEF29E688E1F1500B
:1003600020408040E1F700C00000CF5FC43061F75B
:10037000A6DE81E08EBD89B7846089BF7894DF9165
:10038000CF91FF90EF9008959DEC899F912D1124BE
:1003900096959695969520E1929FA0011124990F2C
:1003A000292F220F220F920F891B842B0895EF9281
:1003B000FF921F93CF93DF93F89453D28BE08093F7
:1003C000610010917F00D0917E002FEF84E39CE0CC
:1003D000215080409040E1F700C00000F12CC1E0C6
:1003E000EE24E3946EDF8FEC97E00197F1F700C005
:1003F000000080917A00882399F0CF5FC73068F4BD
:10040000C13019F0C23029F009C0812F90E0D8D155
:1004100005C08D2F90E0D4D101C0C0E010927A00C9
:1004200000DF809160008823B9F0C13019F0C2303C
:1004300049F00FC0180F183108F010E0812F90E03C
:10044000BFD107C0D80FDC3308F0D0E08D2F90E08B
:10045000B7D110926000FE2CC111C4CFFF2069F00B
:10046000812F92DF682F84E847DE8D2F8DDF682F84
:1004700082E842DE60E080E83FDE8CE0809361004D
:100480007894DF91CF911F91FF90EF9008952ADF2C
:10049000C0E8D0E018E015DF80917A008823A1F051
:1004A00090E08ED12FEF84E39CE02150804090407B
:1004B000E1F700C0000080917A00813019F41092B9
:1004C0007A0075DF10927A00988180917F009813EE
:1004D00006C080917E00863010F4109363002FE7F1
:1004E00088E391E0215080409040E1F700C0000097
:1004F000D2CFE8E061E070E025B3AB010090A0004E
:1005000002C0440F551F0A94E2F7942F909592234E
:1005100095BB80FF0CC095B39B010090A60002C064
:10052000220F331F0A94E2F7292B25BB0DC025B3F8
:10053000AB010090A60002C0440F551F0A94E2F7D9
:10054000942F9095922395BB00C00000859595B39C
:100550009B010090A00002C0220F331F0A94E2F713
:10056000292B25BB00C00000E15031F695B321E0F6
:1005700030E0A9010090A00002C0440F551F0A946A
:10058000E2F7842F8095892385BB00C000C000005E
:1005900094B3A9010090A60002C0440F551F0A940D
:1005A000E2F7842F8095892384BB0090A60002C0C7
:1005B000220F331F0A94E2F783B390E08223932340
:1005C000892BD1F784B3282B24BB45B381E090E07D
:1005D0009C010090A00002C0220F331F0A94E2F792
:1005E000242B25BB00C025B30090A00002C0880FBB
:1005F000991F0A94E2F78095822385BB089545B33D
:1006000081E090E09C010090A00002C0220F331F07
:100610000A94E2F7242B25BB45B39C010090A60069
:1006200002C0220F331F0A94E2F7242B25BB00C01F
:1006300025B30090A60002C0880F991F0A94E2F724
:100640008095822385BB089535B381E090E0AC01AD
:100650000090A00002C0440F551F0A94E2F7242F17
:100660002095232325BB00C035B3AC010090A60024
:1006700002C0440F551F0A94E2F7242F209523232C
:1006800025BB00C045B39C010090A00002C0220F12
:10069000331F0A94E2F7242B25BB00C025B300903A
:1006A000A60002C0880F991F0A94E2F7822B85BB2F
:1006B0000895AC018091A700813011F080E001C065
:1006C00080E8DA019A012C5F3F4FEC91EF3711F48B
:1006D0001C9206C0F0E0EB59FF4F9081980F9C935D
:1006E0001196A217B30789F78091A300813069F4AE
:1006F00080919F00833049F0FA01E80FF11D80815D
:100700008058808383E080939F000895EF92FF924A
:100710000F931F93CF93DF9300D000D0CDB7DEB7F8
:10072000DC018E010F5F1F4F7E0185E0E80EF11C9A
:10073000F8018D918193EE15FF05D9F7CE01019651
:10074000B8DF5DDF80E4D5DE7FDF59DF8091A10077
:10075000D0DEF80181918F01CCDE0E151F05C9F79F
:1007600073DF4DDF8091A500C4DE6EDF0F900F9028
:100770000F900F90DF91CF911F910F91FF90EF900D
:100780000895CF93DF93C82F6F3731F0E62FF0E055
:10079000EB59FF4FD08101C0D0E031DF84E4A9DE06
:1007A00053DF2DDF8C2F806CA4DE8D2FA2DE4CDF7B
:1007B00026DF8091A5009DDE47DFDF91CF91089570
:1007C000CF93DF9300D000D0CDB7DEB79C01295185
:1007D0003C4F273F3A42F0F59923CCF420E129839E
:1007E0009F7764E670E075D0262F6A836AE070E038
:1007F00070D06B838C838091A400882329F1211110
:1008000023C081E18A8361111FC08B831DC068EE04
:1008100073E05FD0262F698364E670E05AD0362FEC
:100820006A836AE070E055D06B838C838091A4006A
:10083000882351F0211108C081E18983311104C05E
:100840008A83611101C08B8381E08093A400CE0173
:1008500001965CDF0F900F900F900F90DF91CF917A
:1008600008956FE780E08DDF6FE781E08ADF6FE753
:1008700082E087DF6FE783E084DF08956093A00064
:100880004093A60075B321E030E0F90102C0EE0FFD
:10089000FF1F4A95E2F7AF01472B02C0220F331F1B
:1008A0006A95E2F7242B25BB8093A30081E0809317
:1008B000A40083E080939F00D4DF08956093A2009A
:1008C0004093A10088578093A50008958093A700C6
:1008D000089597FB072E16F4009406D077FD08D0F4
:1008E0000BD007FC05D03EF4909581959F4F08955D
:1008F000709561957F4F0895AA1BBB1B51E107C0FE
:10090000AA1FBB1FA617B70710F0A61BB70B881F9F
:10091000991F5A95A9F780959095BC01CD0108952E
:04092000F894FFCF79
:10092400800C020A013F065B4F666D7D077F6F777F
:0A0934007C395E79714000231C003D
:00000001FF
