:1000000012C02CC02BC02AC029C028C027C026C0BF
:10001000CBC024C023C0A1C021C020C01FC01EC0AF
:100020001DC01CC01BC011241FBECFE5D4E0DEBF25
:10003000CDBF10E0A0E6B0E0EAEAF8E002C005902B
:100040000D92A637B107D9F720E0A6E7B0E001C0CE
:100050001D92A33AB207E1F76DD125C4D1CF8B9A97
:1000600093988B9834E080E020B3869523FB992702
:1000700090F9979599279795892B929A00C0929815
:1000800000C0315089F744E020B3369523FB99270F
:1000900090F9979599279795392B929A00C0929845
:1000A00000C0415089F7982F92959F7032953F700C
:1000B000330F832F880F880F830F890F08958C9A31
:1000C000939A92989498949A08958B9898E093981C
:1000D00080FD939A929A00C0929800C086959150A4
:1000E000B1F70895CF93C82FEADF8C2FEEDFB7DF8B
:1000F00094989298CF910895CF93DF93D82FC62FDD
:10010000DEDF8D2FE2DF8C2FE0DF94989298DF9175
:10011000CF910895E199FECF9FBB8EBB6DBBE29A54
:10012000E19A8FEF9FEF9FBB8EBB0895E199FECFC1
:1001300090E09FBB8EBBE09A8FEF9FEF9FBB8EBB83
:100140008DB3089583E389B910BC80E98AB986E844
:1001500080BD80B5877F80BD08951F920F920FB636
:100160000F9211248F939F93EF93FF939CB18091F3
:100170007800E82FF0E0E657FF4F90839E3231F091
:100180008F5F803118F48093780005C0109278005A
:1001900081E080937700FF91EF919F918F910F9075
:1001A0000FBE0F901F9018951F920F920FB60F92CF
:1001B00011242F933F934F935F936F937F938F936C
:1001C0009F93AF93BF93CF93DF93EF93FF938FEF03
:1001D00097E39DBD8CBD85E885DF8F7380937A00A2
:1001E00083E880DF8093790090917A00C82FD0E077
:1001F00084E6989FC00DD11D1124809161008F5F0E
:1002000080936100817025D3CE019DD2FF91EF9143
:10021000DF91CF91BF91AF919F918F917F916F911E
:100220005F914F913F912F910F900FBE0F901F90B4
:100230001895EF92FF92CF93DF93F8940F2EFBE780
:10024000EF2EF0E0FF2EF02DC0E0D0E0F70161913D
:100250007F01CE015FDF2196C430D105B9F77894D4
:10026000DF91CF91FF90EF900895EF92FF92CF939F
:10027000DF938F9A80916000813019F463DFA49A34
:10028000AC9880916000823031F4B898BA98BB98ED
:1002900088B38D6088BBF89484B3806384BB44E0EA
:1002A00065E080E0AED240EC60E082E0CAD280E05F
:1002B0003DDFCBE7D0E0888381E038DF898382E0CF
:1002C00035DF8A8383E032DF8B837E01C0E0F70174
:1002D00081917F0190E037D26C2F80E015D2FFEF43
:1002E00029E688E1F15020408040E1F700C000009D
:1002F000CF5FC43061F7E3DE83E08EBD89B78460F1
:1003000089BF7894DF91CF91FF90EF9008959DEC95
:10031000899F912D112496959695969520E1929F0F
:10032000A0011124990F292F220F220F920F891B50
:10033000842B08959ADFD12C0F2EFAE8EF2EF0E0EF
:10034000FF2EF02DCBE7D0E0CC24C3948091600049
:10035000813009F05BC080917700813009F05CC08A
:1003600010927700F7018081813019F58181CFDF0C
:10037000682F8CE8C1DEF7018281C9DF682F88E829
:10038000BBDEF7018381C3DF682F8AE8B5DEF701A2
:100390008481BDDF682F84E8AFDEF7018581B7DF98
:1003A000682F82E8A9DEF7018681B1DF682F80E837
:1003B000A3DEF7018081823009F052C081818883F9
:1003C0008281898383818A8384818B8332DF48C0E1
:1003D000F50181915F0190E0B6D1612F80E094D169
:1003E000FFEF29E688E1F15020408040E1F700C0AE
:1003F00000001F5F183061F780E0E82FF0E0E6575B
:10040000FF4F10828F5F8031C0F3082F8091600012
:10041000823011F41092760080917A0098818917C9
:1004200008F0DC2C9981891708F0D12C9A81891762
:10043000F8F49B81891730F491E0D91206C0979A9D
:10044000DC2C04C0D12C01C0D12C9798EFEFF4E341
:100450002CE0E150F0402040E1F700C0000076CFF2
:100460000F2EFAE8AF2EF0E0BF2EF02D10E0B0CF47
:100470009B81891748F7E3CFE8E061E070E025B39E
:10048000AB0100909B0002C0440F551F0A94E2F795
:10049000942F9095922395BB80FF0CC095B39B0140
:1004A0000090A10002C0220F331F0A94E2F7292B0B
:1004B00025BB0DC025B3AB010090A10002C0440FC5
:1004C000551F0A94E2F7942F9095922395BB00C094
:1004D0000000859595B39B0100909B0002C0220F00
:1004E000331F0A94E2F7292B25BB00C00000E1501E
:1004F00031F695B321E030E0A90100909B0002C0E5
:10050000440F551F0A94E2F7842F8095892385BBF9
:1005100000C000C0000094B3A9010090A10002C077
:10052000440F551F0A94E2F7842F8095892384BBDA
:100530000090A10002C0220F331F0A94E2F783B398
:1005400090E082239323892BD1F784B3282B24BBFB
:1005500045B381E090E09C0100909B0002C0220F17
:10056000331F0A94E2F7242B25BB00C025B300906B
:100570009B0002C0880F991F0A94E2F7809582239E
:1005800085BB089545B381E090E09C0100909B00FD
:1005900002C0220F331F0A94E2F7242B25BB45B378
:1005A0009C010090A10002C0220F331F0A94E2F7C1
:1005B000242B25BB00C025B30090A10002C0880FEA
:1005C000991F0A94E2F78095822385BB089535B37D
:1005D00081E090E0AC0100909B0002C0440F551FE9
:1005E0000A94E2F7242F2095232325BB00C035B3BE
:1005F000AC010090A10002C0440F551F0A94E2F71D
:10060000242F2095232325BB00C045B39C010090D7
:100610009B0002C0220F331F0A94E2F7242B25BB54
:1006200000C025B30090A10002C0880F991F0A9452
:10063000E2F7822B85BB0895AC018091A200813046
:1006400011F080E001C080E8DA019A012C5F3F4F91
:10065000EC91EF3711F41C9206C0F0E0EE59FF4F19
:100660009081980F9C931196A217B30789F78091F8
:100670009E00813069F480919A00833049F0FA013C
:10068000E80FF11D80818058808383E080939A0079
:100690000895EF92FF920F931F93CF93DF9300D0B3
:1006A00000D0CDB7DEB7DC018E010F5F1F4F7E019A
:1006B00085E0E80EF11CF8018D918193EE15FF05A0
:1006C000D9F7CE010196B8DF5DDF80E4D5DE7FDFAC
:1006D00059DF80919C00D0DEF80181918F01CCDE42
:1006E0000E151F05C9F773DF4DDF8091A000C4DE32
:1006F0006EDF0F900F900F900F90DF91CF911F91B1
:100700000F91FF90EF900895CF93DF93C82F6F372D
:1007100031F0E62FF0E0EE59FF4FD08101C0D0E07C
:1007200031DF84E4A9DE53DF2DDF8C2F806CA4DE63
:100730008D2FA2DE4CDF26DF8091A0009DDE47DFFB
:10074000DF91CF910895CF93DF9300D000D0CDB744
:10075000DEB79C0129513C4F273F3A42F0F59923DF
:10076000CCF420E129839F7764E670E075D0262FD2
:100770006A836AE070E070D06B838C8380919F0005
:10078000882329F1211123C081E18A8361111FC0CF
:100790008B831DC068EE73E05FD0262F698364E60B
:1007A00070E05AD0362F6A836AE070E055D06B83D0
:1007B0008C8380919F00882351F0211108C081E132
:1007C0008983311104C08A83611101C08B8381E068
:1007D00080939F00CE0101965CDF0F900F900F90E9
:1007E0000F90DF91CF9108956FE780E08DDF6FE785
:1007F00081E08ADF6FE782E087DF6FE783E084DFF5
:10080000089560939B004093A10075B321E030E010
:10081000F90102C0EE0FFF1F4A95E2F7AF01472B27
:1008200002C0220F331F6A95E2F7242B25BB809369
:100830009E0081E080939F0083E080939A00D4DF44
:10084000089560939D0040939C0088578093A0007A
:1008500008958093A200089597FB072E16F4009444
:1008600006D077FD08D00BD007FC05D03EF490955C
:1008700081959F4F0895709561957F4F0895AA1BAC
:10088000BB1B51E107C0AA1FBB1FA617B70710F07B
:10089000A61BB70B881F991F5A95A9F780959095AD
:0A08A000BC01CD010895F894FFCFCC
:1008AA0002013F065B4F666D7D077F6F777C395E7D
:0608BA0079714000231CCF
:00000001FF
