:1000000012C02CC02BC02AC029C028C027C026C0BF
:10001000CBC024C023C0A1C021C020C01FC01EC0AF
:100020001DC01CC01BC011241FBECFE5D4E0DEBF25
:10003000CDBF10E0A0E6B0E0E0E1FCE002C005903A
:100040000D92A637B107D9F720E0A6E7B0E001C0CE
:100050001D92A63AB207E1F715D3D8C5D1CF8B9A36
:1000600093988B9834E080E020B3869523FB992702
:1000700090F9979599279795892B929A00C0929815
:1000800000C0315089F744E020B3369523FB99270F
:1000900090F9979599279795392B929A00C0929845
:1000A00000C0415089F7982F92959F7032953F700C
:1000B000330F832F880F880F830F890F08958C9A31
:1000C000939A92989498949A08958B9898E093981C
:1000D00080FD939A929A00C0929800C086959150A4
:1000E000B1F70895CF93C82FEADF8C2FEEDFB7DF8B
:1000F00094989298CF910895CF93DF93D82FC62FDD
:10010000DEDF8D2FE2DF8C2FE0DF94989298DF9175
:10011000CF910895E199FECF9FBB8EBB6DBBE29A54
:10012000E19A8FEF9FEF9FBB8EBB0895E199FECFC1
:1001300090E09FBB8EBBE09A8FEF9FEF9FBB8EBB83
:100140008DB3089583E389B910BC80E98AB986E844
:1001500080BD80B5877F80BD08951F920F920FB636
:100160000F9211248F939F93EF93FF939CB18091F3
:100170007B00E82FF0E0E357FF4F90839E3231F091
:100180008F5F803118F480937B0005C010927B0054
:1001900081E080937A00FF91EF919F918F910F9072
:1001A0000FBE0F901F9018951F920F920FB60F92CF
:1001B00011242F933F934F935F936F937F938F936C
:1001C0009F93AF93BF93CF93DF93EF93FF938FEF03
:1001D00097E39DBD8CBD85E885DF8F7380937D009F
:1001E00083E880DF80937C0090917D00C82FD0E071
:1001F00084E6989FC00DD11D1124809161008F5F0E
:10020000809361008170D8D4CE0150D4FF91EF91DA
:10021000DF91CF91BF91AF919F918F917F916F911E
:100220005F914F913F912F910F900FBE0F901F90B4
:10023000189586B38E70869586959091780091304A
:1002400031F1A8F0923019F0933089F13FC083303A
:1002500031F4909177009F5F9093770037C08111C0
:1002600035C0909177009150909377002FC08230E5
:1002700031F4909177009F5F9093770027C0813091
:1002800029F5909177009150909377001FC08111CC
:1002900006C0909177009F5F9093770017C08330DE
:1002A000A9F4909177009150909377000FC081301E
:1002B00031F4909177009F5F9093770007C0823070
:1002C00029F4909177009150909377008093780073
:1002D0000895EF92FF92CF93DF93F8940F2EFEE7ED
:1002E000EF2EF0E0FF2EF02DC0E0D0E0F70161919D
:1002F0007F01CE010FDF2196C430D105B9F7789484
:10030000DF91CF91FF90EF900895EF92FF92CF93FE
:10031000DF938F9A80916000813019F413DFA49AE3
:10032000AC9880916000823031F4B998BA98BB984B
:1003300088B38E6088BBF89484B3806384BB44E048
:1003400065E080E011D440EC60E082E02DD480E0F4
:10035000EDDECEE7D0E0888381E0E8DE898382E0CD
:10036000E5DE8A8383E0E2DE8B837E01C0E0F70175
:1003700081917F0190E09AD36C2F80E078D3FFEFDA
:1003800029E688E1F15020408040E1F700C00000FC
:10039000CF5FC43061F793DE83E08EBD89B78460A0
:1003A00089BF7894DF91CF91FF90EF9008959DECF5
:1003B000899F912D112496959695969520E1929F6F
:1003C000A0011124990F292F220F220F920F891BB0
:1003D000842B08953F924F925F926F927F928F92FB
:1003E0009F92AF92BF92CF92DF92EF92FF921F93B4
:1003F000CF93DF9300D000D0CDB7DEB7F89485E877
:1004000071DE8F73982E83E86DDE9DEC899FD12C71
:100410001124CD2CC694C694C694CC0C9C2D990F57
:10042000990FC90E8C19C82ED694D694D6942FEF56
:1004300084E39CE0215080409040E1F700C0000040
:10044000F12C512CE12C11E00F2EF3E06F2EF02D4A
:10045000AA24A3940F2EF7E13F2EF02D6894772461
:1004600071F86894882482F80F2EFDECBF2EF02DD1
:100470000F2EF4E64F2EF02D8FE39CE90197F1F754
:1004800000C00000F39480917600882309F487C0AF
:100490009FEF20E782E0915020408040E1F700C0CC
:1004A00000008091760080FF02C0982D01C090E08E
:1004B00082FD9A2D81FD972D83FDCDC0913009F5E8
:1004C000113031F4939428E1291508F4BAC0BBC067
:1004D000123008F443C0163009F440C02E2D30E02D
:1004E000F901E258FF4F80818F5F893128F4F901CB
:1004F000E258FF4F808332C0F901E258FF4F10826B
:100500002DC0923001F5113031F4D39485E08D1572
:1005100008F49BC09BC0123008F43FC01630E9F1CC
:100520008E2D90E0FC01E258FF4F2081211105C083
:10053000FC01E258FF4F308230C0FC01E258FF4F0F
:10054000215020832AC0933049F4113031F5C394EF
:1005500099E09C1508F47CC05A2C1FC09430E9F433
:100560001130B9F4552099F0892D21DF682F84E8E6
:10057000C3DD9D2D990F892F880F880F890F8C0D52
:1005800016DF682F82E8B8DD60E080E8B5DD12E0B4
:1005900004C01F5F123008F0E3941092760016300A
:1005A00009F440C01130B9F4F3FE3AC02D2D30E00B
:1005B000C901880F991F220F331F220F331F220FEB
:1005C000331F820F931F499C800D911D11248C0DA8
:1005D000911D6CD251CF123008F1F3FE21C08E2D47
:1005E00081708E5E89838E2D86958F5F8A83EE2D36
:1005F000F0E0E258FF4F90819B9D812D112486955C
:10060000869586958B83880F282F220F220F820FC5
:10061000981B9C83CE010196EFD12ECFF3FC2CCFFB
:1006200096D22ACF56DE84E0809379002FEF84E3C0
:100630009CE0215080409040E1F700C00000789499
:100640000CC0992493945A2C7ECFD12C5A2C86CF4F
:100650005A2CC12CA2CF962D76CF0F900F900F90D1
:100660000F90DF91CF911F91FF90EF90DF90CF908F
:10067000BF90AF909F908F907F906F905F904F90C2
:100680003F90089542DED12C0F2EFDE8EF2EF0E0D2
:10069000FF2EF02DCEE7D0E0CC24C39480916000F3
:1006A000813009F05BC080917A00813009F06AC026
:1006B00010927A00F7018081813019F5818177DE0F
:1006C000682F8CE819DDF701828171DE682F88E8D8
:1006D00013DDF70183816BDE682F8AE80DDDF701FA
:1006E000848165DE682F84E807DDF70185815FDEA0
:1006F000682F82E801DDF701868159DE682F80E8E6
:10070000FBDCF7018081823009F05DC08181888344
:100710008281898383818A8384818B83DADD53C0DC
:10072000F50181915F0190E0C1D1612F80E09FD1FF
:10073000FFEF29E688E1F15020408040E1F700C05A
:1007400000001F5F183061F780E0E82FF0E0E3570A
:10075000FF4F10828F5F8031C0F3082F80916000BF
:10076000823081F466DD80917600882359F090E034
:100770009DD180917600813019F4109276002ADEA6
:100780001092760080917D009881891708F0DC2C0A
:100790009981891708F0D12C9A818917E0F49B81FF
:1007A000891730F491E0D91206C0979ADC2C04C066
:1007B000D12C01C0D12C9798EFECF7E03197F1F7ED
:1007C00000C000006BCF0F2EFDE8AF2EF0E0BF2E73
:1007D000F02D10E0A5CF9B81891760F7E6CFE8E008
:1007E00061E070E025B3AB0100909E0002C0440FB1
:1007F000551F0A94E2F7942F9095922395BB80FFA2
:100800000CC095B39B010090A40002C0220F331FBF
:100810000A94E2F7292B25BB0DC025B3AB0100904C
:10082000A40002C0440F551F0A94E2F7942F90953C
:10083000922395BB00C00000859595B39B01009065
:100840009E0002C0220F331F0A94E2F7292B25BB1A
:1008500000C00000E15031F695B321E030E0A9017D
:1008600000909E0002C0440F551F0A94E2F7842FA7
:100870008095892385BB00C000C0000094B3A90106
:100880000090A40002C0440F551F0A94E2F7842F81
:100890008095892384BB0090A40002C0220F331FDF
:1008A0000A94E2F783B390E082239323892BD1F754
:1008B00084B3282B24BB45B381E090E09C010090D9
:1008C0009E0002C0220F331F0A94E2F7242B25BB9F
:1008D00000C025B300909E0002C0880F991F0A94A3
:1008E000E2F78095822385BB089545B381E090E0CF
:1008F0009C0100909E0002C0220F331F0A94E2F771
:10090000242B25BB45B39C010090A40002C0220FFC
:10091000331F0A94E2F7242B25BB00C025B30090B7
:10092000A40002C0880F991F0A94E2F780958223E1
:1009300085BB089535B381E090E0AC0100909E0046
:1009400002C0440F551F0A94E2F7242F2095232359
:1009500025BB00C035B3AC010090A40002C0440F19
:10096000551F0A94E2F7242F2095232325BB00C0AE
:1009700045B39C0100909E0002C0220F331F0A94D1
:10098000E2F7242B25BB00C025B30090A40002C0D1
:10099000880F991F0A94E2F7822B85BB0895AC015A
:1009A0008091A500813011F080E001C080E8DA017B
:1009B0009A012C5F3F4FEC91EF3711F41C9206C067
:1009C000F0E0EE59FF4F9081980F9C931196A2177B
:1009D000B30789F78091A100813069F480919D006F
:1009E000833049F0FA01E80FF11D8081805880833F
:1009F00083E080939D000895EF92FF920F931F93E1
:100A0000CF93DF9300D000D0CDB7DEB7DC018E01ED
:100A10000F5F1F4F7E0185E0E80EF11CF8018D91FC
:100A20008193EE15FF05D9F7CE010196B8DF5DDFA2
:100A300080E4D5DE7FDF59DF80919F00D0DEF801B2
:100A400081918F01CCDE0E151F05C9F773DF4DDFD5
:100A50008091A300C4DE6EDF0F900F900F900F9077
:100A6000DF91CF911F910F91FF90EF900895CF9359
:100A7000DF93C82F6F3731F0E62FF0E0EE59FF4FCC
:100A8000D08101C0D0E031DF84E4A9DE53DF2DDF67
:100A90008C2F806CA4DE8D2FA2DE4CDF26DF8091B0
:100AA000A3009DDE47DFDF91CF910895CF93DF93C1
:100AB00000D000D0CDB7DEB79C0129513C4F273F75
:100AC0003A42F0F59923CCF420E129839F7764E63C
:100AD00070E075D0262F6A836AE070E070D06B8377
:100AE0008C838091A200882329F1211123C081E108
:100AF0008A8361111FC08B831DC068EE73E05FD0D5
:100B0000262F698364E670E05AD0362F6A836AE044
:100B100070E055D06B838C838091A200882351F0C4
:100B2000211108C081E18983311104C08A836111D8
:100B300001C08B8381E08093A200CE0101965CDF2F
:100B40000F900F900F900F90DF91CF9108956FE766
:100B500080E08DDF6FE781E08ADF6FE782E087DF8B
:100B60006FE783E084DF089560939E004093A400C4
:100B700075B321E030E0F90102C0EE0FFF1F4A9586
:100B8000E2F7AF01472B02C0220F331F6A95E2F74D
:100B9000242B25BB8093A10081E08093A20083E0F9
:100BA00080939D00D4DF08956093A00040939F0040
:100BB00088578093A30008958093A500089597FB1C
:100BC000072E16F4009406D077FD08D00BD007FC52
:100BD00005D03EF4909581959F4F0895709561954D
:100BE0007F4F0895AA1BBB1B51E107C0AA1FBB1F63
:100BF000A617B70710F0A61BB70B881F991F5A95A9
:100C0000A9F780959095BC01CD010895F894FFCF88
:100C100002013F065B4F666D7D077F6F777C395E13
:060C200079714000231C65
:00000001FF
